S01D000031312D53746172742D7461736B2D736F6C7574696F6E2E733337B0
S31508000000001000202D0600080F4300080F430008C3
S315080000100F4300080F4300080F4300080F4300086A
S315080000200F4300080F4300080F4300086102000849
S315080000300F4300080F430008F1010008AB4500080C
S315080000400F4300080F4300080F4300080F4300083A
S315080000500F4300080F4300080F4300080F4300082A
S315080000600F4300080F4300080F4300080F4300081A
S315080000700F4300080F4300080F4300080F4300080A
S315080000800F4300080F4300080F4300080F430008FA
S315080000900F4300080F4300080F4300080F430008EA
S315080000A00F4300080F4300080F4300080F430008DA
S315080000B00F4300080F4300080F4300080F430008CA
S315080000C00F4300080F4300080F4300080F430008BA
S315080000D00F4300080F4300080F4300080F430008AA
S315080000E00F4300080F4300080F4300080F4300089A
S315080000F00F4300080F4300080F4300080F4300088A
S315080001000F4300080F4300080F4300080F43000879
S315080001100F4300080F4300080F4300080F43000869
S315080001200F4300080F4300080F4300080F43000859
S315080001300F4300080F4300080F4300080F43000849
S315080001400F4300080F4300080F43000859450008ED
S315080001500F4300080F4300080F4300080F43000829
S315080001600F4300080F4300080F4300080F43000819
S31508000170013800D0FCE770470000000000000000CE
S315080001800B4A1168086806C881F30B88022181F3B7
S315080001901488203080F30988BFF36F8F4FF0000072
S315080001A080F31188104700BFAFF30080AFF30080DB
S315080001B014240020000000000000000000000000D9
S315080001C007480068006880F3088862B661B6BFF31E
S315080001D04F8FBFF36F8F02DF00BF00BFAFF3008002
S315080001E008ED00E00000000000000000000000002C
S315080001F0EFF309801EF0100F08BF20ED108AEFF309
S315080002000B82734620E9FC0F114A116808604FF00B
S31508000210300080F31188BFF34F8FBFF36F8F03F061
S3150800022065FA4FF0000080F31188094A11680868DA
S31508000230B0E8FC0F13F0100F08BFB0EC108A82F379
S315080002400B8880F309881847AFF30080AFF3008066
S315080002501424002000000000000000000000000038
S315080002601EF0040F0CBFEFF30880EFF30980044972
S31508000270084700BFAFF30080AFF30080AFF30080FC
S31508000280113E00080348044B834202D0034B03B1D6
S31508000290184770470827002008270020000000009C
S315080002A0064B0749C91A891048BF0131491003D0BE
S315080002B0044B0BB101481847704700BF08270020B8
S315080002C0082700200000000010B5064C237843B923
S315080002D0FFF7D8FF044B13B10448AFF3008001239E
S315080002E0237010BDE2250020000000009C4F000886
S315080002F008B5054B1BB105490548AFF30080BDE8B5
S315080003000840FFF7CDBF00BF000000000010002026
S315080003109C4F0008A3F5803A704700BF174B002B87
S3150800032008BF134B9D46FFF7F5FF00218B460F4686
S315080003301348144A121A04F0C9FA0E4B002B00D0BF
S3150800034098470D4B002B00D0984700200021040049
S315080003500D000D48002802D00C48AFF3008003F0CA
S315080003606BFF2000290003F0A4FF03F053FF00BF32
S315080003700000080000000000000000000010002037
S315080003800010002088260020000000000000000061
S31508000390F0B52E4E2E4D34460FCD0FC495E803000A
S315080003A02C4F84E803004FF47A733C462A4DB36118
S315080003B00FCD0FC495E8030040F24C43BB61274FAD
S315080003C084E803003C46264D85B00FCD0FC495E85A
S315080003D003004FF49663BB61224B84E80300029343
S315080003E0214BA0220193012320490093204833463C
S315080003F002F0C2FF18B985211E4803F09DFF1E4B67
S31508000400A02202931D4B1949019301231848009312
S31508000410104B02F0B1FF18B98E21164803F08CFF75
S31508000420174BA0220293174B10490193012310483A
S3150800043000930A4B02F0A0FF30B997210D4805B08A
S31508000440BDE8F04003F078BF05B0F0BDD81800202D
S3150800045040490008BC18002028490008A0180020B8
S3150800046010490008C815002020160020F848000882
S315080004709542000803490008F0120020481300209E
S31508000480181000207010002008B5054803F066FF14
S31508000490044803F063FFBDE80840034803F05EBF65
S315080004A040490008284900081049000808B50448CA
S315080004B003F0C7FF03F006FFBDE8084000F018B8D0
S315080004C0284C0008014803F0BCBF00BF284C0008B0
S315080004D00122024BC3F8A020704700BF00D003508A
S315080004E00122024BC3F8A020704700BF00E003506A
S315080004F0F0B5404D89B001AC0FCD0FC495E80700A3
S3150800050084E8070001243C4F3C4803F09AFF3C4E20
S31508000510384603F096FF3B4B304601A903938DF806
S31508000520124001F0BBFD234604220321022001F0FC
S315080005301BFD022122460846002301F015FD23462D
S3150800054021460422022001F00FFD04220021234641
S31508000550022001F009FD2C4D2C4B4FF44870C5F8CC
S3150800056034374FF00213C5F8303703F58033C5F832
S3150800057038371C23C5F8203702F06CFB1420FFF728
S31508000580AFFF02F067FB2320FFF7A2FF02F062FB32
S31508000590B9213046FFF7A4FF03F042FFFFF798FFA3
S315080005A0002303211A46022001F0DEFC0023022163
S315080005B01A46084601F0D8FC2346214600220220A6
S315080005C001F0D2FC002223461146022001F0CCFCA1
S315080005D0304601F037FD00233846C5F83437C5F8EC
S315080005E03037C5F83837C5F8203703F02DFF09B07E
S315080005F0F0BD00BF58490008204C0008284C0008E8
S3150800060000C0055000127A0000C003500200010025
S315080006100348044A0449121A921003F079BE00BF2F
S3150800062070010008700100088826002008B500F04F
S315080006302FF8FFF7EDFF124B12498B4212D3002019
S31508000640114B12498B4218D3FFF768FE186850F809
S315080006502240586840F82240013298688242F5D311
S315080006600C33EAE70022F8E71C6844F82200013256
S315080006705C68A242F8D30833E4E70022F8E700BF33
S31508000680A44F0008B04F0008B04F0008B04F00084C
S315080006904FF48041124B134A70B59A60D3F88820FC
S315080006A0114D42F47002C3F88820104A05F500542B
S315080006B091664FF0FF3222660D4A62660222C3F83F
S315080006C0D020BFF34F8FBFF36F8F4FF44036002013
S315080006D001F07EFF0020E66001F060FF2E6170BD2C
S315080006E000ED00E000000008008000440090005083
S315080006F0F7FF3700014B1868704700BF8C260020AB
S31508000700014B1860704700BF8C260020084B1B6FF2
S3150800071003F00703022B04D0032B05D0012B05D0C9
S31508000720FEE7044B18687047034BFBE7034870471E
S31508000730008000508C26002094260020002D3101D0
S3150800074008B5FFF7E3FF054B1B6FC3F3033301330C
S31508000750B0FBF3F0024B186008BD00BF00800050E4
S31508000760882600200048704700B4C404014B186866
S31508000770704700BF94260020054B1860054B1B6F79
S3150800078003F00703032B01D1FFF7DABF704700BF59
S31508000790942600200080005000487047002D310143
S315080007A04FF0B4439868C0F304400C280AD8DFE831
S315080007B000F00B0909090909072119091B1D1F0062
S315080007C00F487047002070479B6803F04073B3F1E9
S315080007D0807F11D0B3F1007F10D00A4A002B08BFE2
S315080007E010467047084870470848704708487047D9
S315080007F008487047084870470848704708487047CF
S31508000800405DC60000093D00C0EA210180BA8C019E
S315080008100048E801005A62020024F40080841E00A1
S3150800082040420F00014B1868704700BF9026002011
S31508000830032838B504460D4605D8094B33F8103059
S31508000840CB40DB0704D440F2FE31064803F074FDC2
S31508000850302301225C43044BAA401A5138BD00BF1D
S31508000860CA4900087449000840E00350032838B50F
S3150800087004460D4605D8094B33F81030CB40DB0744
S3150800088004D440F22D41064803F056FD30230122D8
S315080008905C43044BAA401A5138BD00BFCA49000838
S315080008A07449000840D0035010B50446064803F0C2
S315080008B0C8FDA3782078B3FA83F3042261785B092C
S315080008C001F052FB002010BD284C000838B504780A
S315080008D04578032C05D8094B33F81430EB40DB0771
S315080008E004D44FF48961064803F026FD302301221B
S315080008F05C43044BAA401A5138BD00BFCA490008D8
S315080009007449000840F0035070B505780446032D75
S31508000910467805D80C4B33F81530F340DB0704D47A
S315080009204FF48361094803F007FD1022302313FBB7
S315080009300523074A9B58F34003F00100A3780BB937
S3150800094080F0010070BD00BFCA490008744900085C
S3150800095030C00350044BD3F88420D206FBD4D3F816
S315080009608400C0F3811070470040005008B5334B2F
S3150800097098424FD027D8324B984245D017D8314B9A
S3150800098098423ED00AD838B12F4B984239D041F216
S31508000990A6312E4803F0D0FC002034E02C4B9842B8
S315080009A02FD02C4B9842F2D12B4B586E2BE02B4B69
S315080009B098422CD003F5371303F5D8639842E6D14D
S315080009C0254B986F1FE0264B98422FD00CD8254B05
S315080009D0984223D0244B984224D0244B9842D6D10F
S315080009E01D4BD3F884000EE0214B984222D003F524
S315080009F0740303F510539842C9D1174BD3F89800DE
S31508000A0001E0154B986D08BD134B186FFBE7124BA9
S31508000A10586FF8E7104BD3F88000F4E70E4BD3F87D
S31508000A208800F0E70C4BD3F88C00ECE70A4BD3F8B8
S31508000A309000E8E7084BD3F89400E4E780BA8C0105
S31508000A40405DC60080841E0040420F00D24900085F
S31508000A5000093D00C0CF6A000080E00F0024F400C2
S31508000A60007E560380D54302006CDC020048E8018C
S31508000A700090D00338B5124B0546D3F880300C46A3
S31508000A8003F00303022B0BD0032B0DD0012B0FD140
S31508000A90FFF73CFE0E2305B1286004B1236038BD7C
S31508000AA0FFF77EFE0723F6E7FFF724FE0623F2E7A5
S31508000AB0044841F2FF1103F03FFC00231846EAE719
S31508000AC000800050D249000838B51A4B0546D3F8BD
S31508000AD020010C4600F00700062821D8DFE800F0C0
S31508000AE028040C1410181C00FFF704FE052305B192
S31508000AF0286004B1236038BDFFF738FE0323F6E704
S31508000B00FFF74EFE0723F2E7FFF746FE0223EEE75E
S31508000B10FFF7F0FD0623EAE7FFF728FE0423E6E7DA
S31508000B20054841F27C2103F007FC00231846DEE75E
S31508000B300123DCE700800050D249000838B5194B7C
S31508000B400546D3F828310C4603F00703013B052B6D
S31508000B5020D8DFE803F003131B0F0B17FFF7CAFDB6
S31508000B60052305B1286004B1236038BDFFF7C2FD2F
S31508000B700623F6E7FFF714FE0723F2E7FFF7F6FD6D
S31508000B800323EEE7FFF7F2FD0423EAE7FFF704FE87
S31508000B900223E6E7044841F2840103F0CDFB002373
S31508000BA01846DEE700800050D2490008F7B500274E
S31508000BB0144B0197D3F88041064604F00304022C2F
S31508000BC00D4614D0032C0DD0012C14D1394601A89A
S31508000BD0FFF77AFF10240EB1019B336005B12C6034
S31508000BE003B0F0BDFFF7DCFD07240190F3E7FFF73C
S31508000BF0D3FD0190EFE741F2D131034803F09CFBA6
S31508000C003C46E8E700800050D2490008002337B583
S31508000C100193194B0546D3F820320C4603F0070317
S31508000C20042B1FD8DFE803F025030F141900002151
S31508000C3001A8FFF783FF12230DB1019A2A6004B1B8
S31508000C40236003B030BDFFF7ABFD07230190F3E740
S31508000C5003F06CFB0A230190EEE7FFF7E3FD092397
S31508000C600190E9E741F24301044803F065FB0023DC
S31508000C70E2E70123E0E700BF00800050D249000800
S31508000C8038B5104B0546D3F840310C4603F003033C
S31508000C90022B0BD0032B0DD0012B0FD103F046FBF3
S31508000CA00A2305B1286004B1236038BDFFF7BAFDF1
S31508000CB00923F6E703F03DFB0C23F2E701230020A6
S31508000CC0EFE700BF00800050002337B50193184BAB
S31508000CD00546D3F860320C4603F00703013B032BA5
S31508000CE01FD8DFE803F0020E1914002101A8FFF748
S31508000CF0EBFE10230DB1019A2A6004B1236003B0FC
S31508000D0030BD002101A8FFF7BBFF1123F2E7FFF76B
S31508000D1047FD07230190EDE7FFF73EFD022301900B
S31508000D20E8E741F2E801034803F006FB0023E1E7A0
S31508000D3000800050D2490008002337B50193184BAC
S31508000D400546D3F894320C4603F00703013B032B00
S31508000D501FD8DFE803F0020E1914002101A8FFF7D7
S31508000D60B3FE10230DB1019A2A6004B1236003B0C3
S31508000D7030BD002101A8FFF783FF1123F2E7FFF733
S31508000D800FFD07230190EDE7FFF706FD022301900B
S31508000D90E8E741F21B11034803F0CEFA0023E1E726
S31508000DA000800050D249000873B500240F4B019407
S31508000DB0D3F87032064603F00303012B0D4607D01D
S31508000DC0022B11D041F24611094803F0B5FA04E0A6
S31508000DD0214601A8FFF754FF11240EB1019B336089
S31508000DE005B12C6002B070BD1524F6E700800050EE
S31508000DF0D249000838B5164B0546D3F800020C460A
S31508000E0000F00700042819D8DFE800F020030B0FCC
S31508000E10130003F08BFA0A2305B1286004B1236096
S31508000E2038BDFFF7FFFC0923F6E703F082FA0C2327
S31508000E30F2E7FFF785FC0F23800AEDE7054841F244
S31508000E408F4103F079FA00231846E5E70123E3E723
S31508000E5000800050D249000838B5164B0546D3F82D
S31508000E6008020C4600F00700042819D8DFE800F04D
S31508000E7020030B0F130003F059FA0A2305B1286063
S31508000E8004B1236038BDFFF7CDFC0923F6E703F06C
S31508000E9050FA0C23F2E7FFF753FC0F23800AEDE71D
S31508000EA0054841F2C74103F047FA00231846E5E72B
S31508000EB00123E3E700800050D249000838B5104BFB
S31508000EC00546D3F840320C4603F00303022B0BD039
S31508000ED0032B0DD0012B0FD103F028FA0A2305B1F5
S31508000EE0286004B1236038BDFFF79CFC0923F6E7A8
S31508000EF003F01FFA0C23F2E701230020EFE700BFF7
S31508000F000080005038B5104B0546D3F860310C46C2
S31508000F1003F00303022B0BD0032B0DD0012B0FD1AB
S31508000F2003F004FA0A2305B1286004B1236038BD2A
S31508000F30FFF778FC0923F6E703F0FBF90C23F2E741
S31508000F4001230020EFE700BF00800050B0F5207FA6
S31508000F5010B52ED009D8B0F5007F24D003D868B1D3
S31508000F60B0F5C07F0AD000241BE0B0F5607FFAD147
S31508000F70124BD3F88040C4F3011412E00F4B1C6FD8
S31508000F80230B13F00E0FC4F303340AD0072C08D032
S31508000F900F2C06D0032C04D040F28621084803F013
S31508000FA0CBF9601C10BD054BD3F89040C4F304641C
S31508000FB0F7E7024B1C6FC4F38024F2E70080005069
S31508000FC0D24900084FF4803238B5104B04469A6669
S31508000FD000200D46FFF7BAFF41F671320C4B60430D
S31508000FE0DC69DA635A6804F4803422F440125DB985
S31508000FF00849884294BF00200120000502435A6030
S315080010000CB10022DA6338BD0349F2E700900050BC
S3150800101000000350005A6202002D310138B5430919
S3150800102004460D460ED140F233310D4803F084F9DB
S31508001030002304F01F0485B103F580530122A24062
S315080010401A6038BD012B04D0022B04D040F241317E
S31508001050EBE7044BEDE7044BEBE703F50053EDE74D
S31508001060D24900086480005068800050002130B5DD
S31508001070802885B00446CDE9001100F09F8035D858
S315080010805E2846D85E2844D8DFE800F09E434343EE
S315080010904343434343434343434343434343434312
S315080010A04343434343434343434343439EAB9EAB7C
S315080010B0BBBBBBBBBBABC550DB7450ABABAB434395
S315080010C0434343434343ABABAB7CE5AB4343434367
S315080010D0434343434343434343BB9E9E9EE0505092
S315080010E0EA8B61C04343434343939E00B0F5B06F18
S315080010F000F0918030D8B0F5207F72D00FD8B0F5C7
S31508001100C07F61D0B0F5007F61D0B0F5807F00F078
S3150800111087804FF49361554803F00EF951E0B0F516
S31508001120607F69D00DD8B0F5407FF2D1FFF708FB94
S3150800113004464FF42070FFF709FFB4FBF0F4640887
S3150800114058E0B0F5806F5CD0B0F5A06FE1D1002112
S315080011506846FFF75BFD34E0B0F5106F76D016D819
S31508001160B0F5E06F77D00AD8B0F5C06F69D0B0F5A2
S31508001170D06FCED100216846FFF73CFE21E0B0F5DE
S31508001180F06FC6D100216846FFF7BCFE19E0B0F53E
S31508001190406F3BD00AD8B0F5206F61D0B0F5286F04
S315080011A0B7D100216846FFF7FFFD0AE0B0F5486FA2
S315080011B0AFD100216846FFF7BFFD02E0FFF7A6FAA8
S315080011C00090009805B030BDFFF7BAFAF8E7FFF7C8
S315080011D09DFA05462046FFF7B9FEB5FBF0F50095E2
S315080011E0EFE7FFF7ADFA04464FF42070FFF7AEFEBF
S315080011F0B4FBF0F40094E4E701A8FFF73BFC019D7B
S31508001200E8E700216846FFF75FFCDAE70021684651
S31508001210FFF794FCD5E700216846FFF7C7FCD0E73F
S315080012204FF0E02302911B695B0705D5FFF788FAA3
S315080012300290029B0093C4E703A902A8FFF720FDCA
S31508001240F7E700216846FFF71BFDBAE70021684665
S31508001250FFF702FEB5E700216846FFF72FFEB0E765
S3150800126000216846FFF730FDABE700BFD24900080A
S3150800127008B58020FFF7FAFE034B98429EBF4FF44D
S315080012808032024B1A6708BD005A620200A000505D
S315080012901FB503460020B3F5807F019000F0C28099
S315080012A063D85D2B54D84C2B06D82D2B46D8232B28
S315080012B02AD840F27D51A4E04D3B102BF9D801A263
S315080012C052F823F01B140008B3120008B3120008E2
S315080012D0B3120008CD130008B3120008B3120008B1
S315080012E09F140008EB1300089113000895140008D2
S315080012F0B3120008B3120008B3120008B3120008AC
S31508001300B3120008A9140008243B092BD1D801A25E
S3150800131052F823F01B1400081B1400081B140008BD
S315080013201B1400081B140008B31200080B1400084D
S31508001330B3120008AD130008511400083D2B00F045
S3150800134082803E2BB5D1002001A9FFF7B7FD60E0EA
S31508001350802BAED1574B1B6F03F00703013B032BC2
S315080013604DD8DFE803F04A47878FB3F5F06F6AD0A8
S3150800137021D8B3F5B06F48D00FD8B3F5607F00F029
S31508001380858096D3B3F5806F47D0B3F5A06F90D11B
S31508001390002001A9FFF73AFC3BE0B3F5D06F57D020
S315080013A0B3F5E06FCFD0B3F5C06F82D1002001A9A5
S315080013B0FFF766FC2DE0B3F5206F70D00BD8B3F5B8
S315080013C0086F4AD0B3F5106F7FF473AF002001A9F8
S315080013D0FFF742FD1DE0B3F5406F5BD0B3F5486FEC
S315080013E062D0B3F5286F7FF464AF002001A9FFF738
S315080013F0DBFC0EE0052301930BE00223FBE740F23A
S31508001400CA412D4802F098FF03E0002001A9FFF722
S31508001410CDFB019805B05DF804FB002001A9FFF794
S3150800142053FBF6E74FF0E02302901B695B0705D5EF
S31508001430FFF786F90D230393039BDCE703A902A8AC
S31508001440FFF71EFCF8E7002001A9FFF75BFDE0E7C0
S31508001450002001A9FFF7CEFCDBE7164BD3F80031D5
S3150800146003F00303022B07D0032B09D0012B0BD162
S31508001470FFF77CF90323BEE7FFF7D4F90923BAE798
S3150800148002F052FF0823B6E70123B4E701A9FFF7E4
S31508001490F1FABEE7002001A9FFF750FBB9E70020E3
S315080014A001A9FFF711FCB4E7002001A9FFF744FCE6
S315080014B0AFE700BF00800050D24900084FF48032E1
S315080014C0074B0849586E03F580535A664B6A23F052
S315080014D001034B62C3035CBF034B5A66704700BFE8
S315080014E00080005000C0075000A0005038B50368BF
S315080014F004460F2B04D940F677317C4802F01CFFCE
S3150800150063680F2B04D940F67A31784802F014FF45
S31508001510A3680F2B04D940F67D31744802F00CFFFE
S31508001520237B0F2B04D94FF43861704802F004FF6F
S31508001530637B0F2B04D940F683316C4802F0FCFE1E
S31508001540A37B3F2B04D940F68631684802F0F4FEA7
S31508001550E37B3F2B04D940F68931644802F0ECFE60
S315080015602369032B04D940F68C31604802F0E4FE67
S315080015706369032B04D940F68F315C4802F0DCFE20
S31508001580E369032B04D940F69231584802F0D4FE99
S315080015908020FFF77DFE032800F083804FF4801239
S315080015A0534B4FF0A0615A6645F60E02514BC3F8ED
S315080015B08020514A91624FF4803102F5805291623F
S315080015C09A6DD203FCD4996D11F08041FBD1D4E910
S315080015D00002120542EA0062E07B0243207B42EAEF
S315080015E00042607B42EA0032A07B42EA80121A611E
S315080015F09869D4E90452120642EA856200F000406E
S315080016000243A07EE57E0243207E42EA0042607ED7
S3150800161042EA00229A611A6AE06922F00F0242EA57
S315080016208502364D00283DD11A6294F82420996A1D
S3150800163094F82000D200294042EA40120A4394F85E
S31508001640211042EA011242F480329A622C49294A50
S31508001650936D31EA0303FBD14FF08071264881620E
S315080016601369A56823F4700343EA055313614FF021
S315080016700043836194F822300BB9224B996294F89F
S3150800168023303BB94FF480321E4B9A62194A936D48
S315080016905B00FCD494F825301BB1164B1A4AC3F8E4
S315080016A0802038BD024342F0080202281A6208D197
S315080016B019614FF40852996114484FF47F4102F0BA
S315080016C065FE0C4994F822308A6A94F820001B06B5
S315080016D02A4043EA4013134394F8242043EAC203FA
S315080016E094F8232043EA02438B62D3E7D2490008E1
S315080016F0009000500040005A0050005AC7FFFEFEF6
S31508001700030001000060005AF1A7FFFF3440005AA9
S31508001710014B93F900007047FD260020436810B579
S31508001720072B044604D940F6D3512A4802F004FE92
S31508001730A368032B04D940F6D551264802F0FCFDD0
S315080017402378032B04D940F6D751224802F0F4FD3A
S3150800175094F90130002B04DA40F6D9511D4802F0FD
S31508001760EBFD4FF400011C4A637851664FF4D151E2
S31508001770022002F5B832516218494F2B48604FF0E3
S31508001780010028BF4F2301F5805148601169C9033C
S31508001790FCD4217843EA01235361D4E901131B01E0
S315080017A043EA0123617B0B43217B43EA41039360B0
S315080017B0E37BA17B1B0143EA4113617C0B43217C3C
S315080017C043EA41035360A37C13B16FF4D1535362C8
S315080017D010BD00BFD249000800900050001002500A
S315080017E0014B1880704700BFF2260020014B188075
S315080017F0704700BFF02600204FF4800208B5184B4A
S315080018005A660223174A5360936813F48033FBD150
S31508001810012822D1FEF7AAFF134B984215D003F5EB
S31508001820122303F5F863984213D0104B00EB80029D
S31508001830400AB3FBF0F3520A0A49CA620B63012352
S315080018404B620022074B5A6008BD45F67A13084AD0
S31508001850F2E745F61A03074AEEE75362F1E700BFD7
S31508001860009000500040025000F049026466666627
S31508001870D8B80500BBCF0500B0F5207F38B577D0BE
S315080018800ED8B0F5007F61D003D890B3B0F5C07F0D
S315080018902FD040F21631BDE838403D4802F04CBD25
S315080018A0B0F5607FF5D13B4A4C1ED2F8FC5015F0D6
S315080018B080751EBFD2F8FC3023F08073C2F8FC3066
S315080018C0032C04D940F2F521314802F035FD324A9D
S315080018D0D2F8803023F0300343EA0413C2F880308C
S315080018E035B12C4AD2F8FC3043F08073C2F8FC308C
S315080018F038BD4C1E012C0AD9102903D8274BCB40DA
S31508001900DB0704D440F2C921214802F015FD02F094
S315080019104CFD02F058FD4FF48031214B1E4A1967E1
S31508001920136F23F4704343EA04331367FEF708FF83
S315080019300446FFF70FF8C0F10201204602F03DFD0C
S3150800194000F040F8BDE83840FFF792BC4C1E1F2C4B
S3150800195004D940F20A310E4802F0EEFC0E4AD2F8DB
S31508001960903023F0F85343EA0463C2F89030BFE797
S315080019704C1E012C04D94FF44471054802F0DCFCD6
S31508001980054A136F23F4806343EA84231367AFE79A
S31508001990D249000800ED00E0008000501001010067
S315080019A00090005008B50121022000F071F902F0FC
S315080019B0FCFC02F008FD4FF48032014B1A6708BDA3
S315080019C00090005008B54FF4C070FFF74FFBBDE814
S315080019D008400449884294BF012102214FF420702F
S315080019E0FFF74ABF80F0FA022DE9F0410546FEF7F7
S315080019F0BDFF431E0333044604D940F6CF113B48C6
S31508001A0002F09AFC4FF4C022394B5A6603F5983314
S31508001A105A68012A04D137494A605A689207FCD4A1
S31508001A208020FFF735FC052807D102F0BEFC02F03E
S31508001A30CAFC4FF480322E4B1A672F4B24F04074A1
S31508001A409D4239D02D4B9D4239D0FEF753FE854233
S31508001A50064603D90121284600F06EF9284FFB688F
S31508001A6013F0060FFBD1D7F80880BC60BB6863404B
S31508001A7013F4F81F26D12846FEF742FE8020FFF70A
S31508001A8007FC052814D1FEF75BFEA842044604D9D4
S31508001A9040F62821154802F04FFCFEF75BFFC0F11F
S31508001AA00201204602F089FCFFF78CFFFFF7E0FBF6
S31508001AB0AE4213D2BDE8F08144F00074C5E744F0A5
S31508001AC08074C2E740F61721084802F035FC8020EA
S31508001AD0C7F80880FFF7DCFB052805D0BDE8F0410C
S31508001AE00121002000F028B93546CCE7D249000884
S31508001AF00090005000E0015040420F0080841E0014
S31508001B00000001504E4B70B59842054673D041D837
S31508001B10A3F5B703A3F55863984265D033D8494B64
S31508001B20494E984251D017D8002877D041F2C911AA
S31508001B30464802F001FC40F67371444802F0FCFB8B
S31508001B404FF40022404B5A663E4B9D4276D0002405
S31508001B503F4A954236D05DE03D4B984227D03D4BF3
S31508001B609842E3D13C4BD3F8A040621E033224F0DE
S31508001B7040744CD940F67371344802F0DDFB4FF4DB
S31508001B8000237366E4E7354B9842CFD1324BD3F83E
S31508001B90BC402CE0324B984231D0324B984232D07E
S31508001BA0314B9842C2D12C4BD3F8C8401FE02A4B80
S31508001BB0D3F8A040621E033224F04074DAD84FF4FA
S31508001BC00023736644F0807424E0234BD3F8A040C6
S31508001BD0621E033224F040742AD84FF40023736639
S31508001BE0234643F0007415E01B4BD3F8B840621E39
S31508001BF0154E0332BBE7184BD3F8C040F7E7164B30
S31508001C00D3F8CC40F3E7144BD3F8D040EFE74FF4C2
S31508001C10002373664FF0B442946070BD40F673714A
S31508001C200A4802F089FB4FF400232C467366F1E755
S31508001C3040F67371054802F07FFBCEE70023D0E734
S31508001C40C0EA210140420F0000900050D249000826
S31508001C5080841E0000093D000080E00F0024F40087
S31508001C600048E801005A620280BA8C01024A536BA6
S31508001C700342FCD1704700BF00400950034A01796E
S31508001C80D36E23F030030B43D366704700400050F1
S31508001C90F8B50446244BD3F88420D006FBD4D3F8F1
S31508001CA08430C3F381139C423CD0FEF72FFD012CF0
S31508001CB005460BD11D4B984204D940F2B7711C4812
S31508001CC002F03AFB0121284602F077FB02F035FBC9
S31508001CD04FF00072174B07465A66204602F08FFBF4
S31508001CE04FF48063104E621E93403367736E9A01F9
S31508001CF003D4D6F884309B060AD5384602F021FB71
S31508001D00022C0FD12846BDE8F840002102F055BB49
S31508001D10D6F884309906E9D540F2C571044802F030
S31508001D200BFBE3E7F8BD00BF00400050005A620213
S31508001D30254A00080060005010B50C4608B9FEF7A1
S31508001D40E5FC074B21461B783BB1064B984204D865
S31508001D500120BDE81040FFF79BBF0220F9E700BF4E
S31508001D60E3250020005A62024FF0004238B5244BA2
S31508001D70244C5A664AF6CD33656C014605F00105D2
S31508001D80236428BB0120FFF771FF6368DB0715D5BD
S31508001D901D4B586008461D4B226BD2070CD498423F
S31508001DA008D1072415B1174B194A1A6402F028FB03
S31508001DB0204638BD0130EFE79842F2D00024F1E71B
S31508001DC00132236B13F0080305D08A42F8D1E8E7FD
S31508001DD000220E49F5E78A42E3D020210A4A916299
S31508001DE00121A2F5805251600649084A886A800690
S31508001DF003D49342D5D00133F8E79342DDE700BF19
S31508001E0000900050004009500060095040420F0001
S31508001E103254FFFF4FF0004238B5164B01465A665A
S31508001E204AF6CD33144C154A656C236443780B2067
S31508001E305B0043F00103D363FFF718FF63688A78F2
S31508001E4023F4F87343EA02136360CA784B7943EACA
S31508001E500223A3600A798B7943EA0223236108786F
S31508001E60FFF782FFEB0744BF054B236402F0C8FA6D
S31508001E70012038BD00900050004009500040005035
S31508001E803254FFFF0F2870B5044605D940F6526153
S31508001E90124802F051FA0F244FF00042104B114934
S31508001EA05D6E03F580535A664AF6CD334E6C802034
S31508001EB00B64FFF7DBFE0B6A23F00F0323430B6269
S31508001EC0F30744BF084B0B64002DA2BF4FF0004236
S31508001ED0064B5A6602F094FA70BD00BF254A000800
S31508001EE000800050004009503254FFFF00A0005007
S31508001EF0032838B504460D4605D8094B33F8103083
S31508001F00CB40DB0704D440F22D41064802F014FA10
S31508001F10302301225C43044BAA401A5138BD00BF46
S31508001F20CC4A00087449000840D00350032838B545
S31508001F3004460D4605D8094B33F81030CB40DB076D
S31508001F4004D440F2FE31064802F0F6F930230122A5
S31508001F505C43044BAA401A5138BD00BFCC4A00085E
S31508001F607449000840E0035003282DE9F04104466F
S31508001F700D461746984605D81D4B33F81030CB400A
S31508001F80DB0704D44FF4B0711A4802F0D5F937B11B
S31508001F9029462046B8F1000F20D0FFF7A9FF0F21E8
S31508001FA0072D04EB440688BFA5F108034FEA061679
S31508001FB0114895BFAB009B0004360C3607FA03F2AE
S31508001FC09940304402F01DFA7FB929462046B8F1F7
S31508001FD0000F06D0BDE8F041FFF78ABFFFF7A6FF5E
S31508001FE0DDE7BDE8F041FFF7A1BFBDE8F08100BF1E
S31508001FF0CC4A0008784A000830C0035070B5064637
S315080020000C46154622B940F28E210C4802F094F986
S3150800201024B94FF42070FFF729F804466D00013CF7
S31508002020B4FBF5F4064B250213EA042304D040F268
S31508002030B321024802F080F9F56170BDD44A000860
S31508002040070080FF124B10B59842044604D040F2B0
S315080020504241104802F070F9012104F58053596095
S3150800206040F6AA6341F20502636100230A48A360A9
S31508002070E365E26004F500522361E361E36490647A
S315080020800348A365844204BF23656365516010BD98
S3150800209000C00550D44A0008FFFF010038B5294B97
S315080020A0044698420D4604D040F26931264802F0AB
S315080020B043F92046FFF7C6FF012204F580535A600C
S315080020C02B8AA26843F001031343AA7B43EA8223BF
S315080020D0A360A3682A7D43EA4273A360AB7C5BB125
S315080020E0184B9C4202BFEA7CA3F51033C3F8C821FB
S315080020F0E36D43F08003E3652B7B2046D5E90112A7
S3150800210043F48053E360FFF779FF6B7B0BB1102331
S3150800211063616B7D1BB1A36843F48033A360AB7D19
S315080021201BB1A36843F40043A360EB7D2A7E1B071B
S31508002130120503F0E04302F4E0021343A3652B788B
S31508002140636138BD00C00550D44A0008034B5A687D
S31508002150D20702D5DA69002AF9D1704700800A50F9
S31508002160054B9A689107FCD45A689207F9D4DA693C
S31508002170002AF6D1704700BF00800A5008B5FFF75D
S31508002180E5FF0222014B1A6108BD00BF00800A5014
S3150800219008B5FFF7E5FF0122024B03F580514A60B7
S315080021A01A6108BD00800A5008B5044B5968012910
S315080021B003D1FFF7E3FF024B596008BD00800A50C0
S315080021C000A00A5010B5064CFFF7CAFF6368012B3A
S315080021D003D1FFF7E9FFFFF7C3FF0378E36010BDFC
S315080021E000800A50A8B94A680B78B2B94A7843EA17
S315080021F042038A6812B1127843EA82138A7843EA5C
S315080022008203CA6812B1127843EA4223054A9364E4
S3150800221070477E21044802F08FB8127843EAC20359
S31508002220E4E700BF00800A50294B000810B9044BA8
S315080022305964704740F21111024802F07DB800BF98
S3150800224000900A50294B000810B9044B596470478E
S3150800225040F24D11024802F06FB800BF00A00A50C4
S31508002260294B000810B9044B1964704740F28911CC
S31508002270024802F061B800BF00A00A50294B0008C6
S3150800228008B510B9044B186C08BD04484FF4E27140
S3150800229002F052F80020F7E700800A50294B0008A0
S315080022A008B520B949B101290AD0002008BD40F275
S315080022B07321054802F040F8F7E7044BD86CF5E7B8
S315080022C0024B186DF2E700BF294B000800800A5040
S315080022D018B939B1012908D0704740F211310448BC
S315080022E002F02AB8034BDA647047024B1A65704746
S315080022F0294B000800800A5070B50D46E8B10368FE
S3150800230013F4E07F03F03F06C3F3821210D0012ACC
S3150800231013D10B4C9B0603D591210A4802F00CF801
S3150800232045B104F5805401230020B340236070BDF5
S31508002330054CEFE704F50054F5E70E20F7E700BF74
S3150800234068800050884B00086480005030B58BB018
S315080023506D46774C0FCC0FC554F8043B68462B6086
S315080023604FF07E6393F89C306D46FF2B08BF3F23E2
S315080023708DF80130FFF7D2F93220FFF731FA0FCC8A
S315080023800FC50FCC0FC594E8030085E80300694B19
S31508002390D3F84C21110340F1AE80A3F5FE431C8807
S315080023A04FF6FF739C4208BF8C248DF81940FFF73F
S315080023B0AFF9044484F308045F488DF81840FEF723
S315080023C0DBF96846FFF792F83220FFF70FFA5B4809
S315080023D0FFF70AFB5A48FFF795FB5A4C01213620AE
S315080023E0FEF71CFE0020FFF707FAFFF7DBFA236F5C
S315080023F0002023F0070343F003032367236F23F426
S31508002400744343F48063236701F0E2FF4E4BD3F82D
S31508002410FC20D20173D4D4F8803023F0030343F0B0
S315080024200103C4F88030D4F88030C4F88030454CB5
S31508002430D4F8203123F0070343F00203C4F820310F
S31508002440D4F8283123F0070343F00203C4F82831EF
S31508002450D4F8803123F0030343F00103C4F8803134
S31508002460D4F8403123F0030343F00203C4F84031A3
S31508002470D4F8603123F0030343F00203C4F8603153
S31508002480D4F8403223F0030343F00203C4F8403281
S31508002490D4F8003223F0070343F00203C4F80032ED
S315080024A0D4F8083223F0070343F00203C4F80832CD
S315080024B0D4F8703223F0030343F00103C4F87032F2
S315080024C0D4F8203223F0070343F00103C4F820327E
S315080024D0FEF7F4FF4FF0E0220020136963F00403CF
S315080024E01361D4F8603223F0070343F00103C4F8FC
S315080024F060320BB030BDD3F85041E4B255E7D3F89B
S31508002500FC2022F08072C3F8FC20D4F8802022F048
S31508002510030242F00102C4F88020D4F88020C4F8EF
S315080025208020D3F8FC2042F08072C3F8FC207EE7B6
S31508002530DC4B00080080E00FC017530200B4C40447
S31508002540C0EA21010080005000ED00E007B5094B04
S3150800255018689A889B7900906846ADF804208DF82B
S315080025600630FFF757FC0C20FFF78CFC002003B061
S315080025705DF804FB184C000813B50024064A6846A3
S31508002580536F43F00103536700948DF80440FFF737
S3150800259075FB204602B010BD004000504C2810B50F
S315080025A0044608D801236109074A04F01F04A3401A
S315080025B042F8213010BD4FF48A71044801F0BCFE80
S315080025C0002CF7DBEEE700BF00E100E0384C00081E
S315080025D0002808DB01224309034900F01F00824056
S315080025E0603341F82320704700E100E038B500F178
S315080025F010035C2B04460D4604D94FF4E1710D48CF
S3150800260001F09AFE1E2D04D940F2C311094801F0C3
S3150800261093FE002CACBF04F16044074B4FEA051546
S31508002620EDB2ABBF04F5614404F00F0484F800531F
S315080026301D5538BD384C000814ED00E073B500246C
S31508002640684600F0F9F80C4B00981C600B4B0C4DD3
S315080026501C600C4E0C4B306018602C6001F069FF52
S315080026602046019B3268013BDB0853802B68013307
S315080026702B6002B070BD00BFF8180020F4180020C7
S31508002680FC18002004190020001900202DE9F34742
S315080026900446684600F0D0F8002C00F0C28001F02D
S315080026A053FE14F8085CEB0704D534F806ECBEF1C3
S315080026B0000F05D101F04EFE012002B0BDE8F087FB
S315080026C0DFF870C134F8041CDCF800800EF1010252
S315080026D008F10103A4F1080692B2CCF800300029EB
S315080026E038D0A6EBC10393F800A0B3F806901AF009
S315080026F0010F5F8805F0020520D105BBA9EB07018C
S31508002700012927D80EF102021744BAB2CCF8008084
S3150800271034F8025C05BB14F8085C511E6FF300051B
S3150800272004F8085C002589B224F8065C59801978F3
S3150800273065F3000119700021D98031E055B11144C3
S315080027408AB214F8081C6FF3410104F8081C00212A
S315080027509980DDE73346DBE706EBC508DDE900715E
S315080027600F44B845D7D216F83560414616F001062B
S315080027702ED014F8086C551E6FF3000604F8086C82
S31508002780002624F8066C1C78ADB266F300045D805A
S315080027901C70C3F107040C44C4F3CF04DC808C809E
S315080027A0214C216819B1994201D8498801B9236099
S315080027B01E4C216819B1994201D3498801B9236091
S315080027C01B490B689B1A0B6001F0C4FD002074E7D7
S315080027D0A5EB0E05012DCCD8B8F80250A8F8026072
S315080027E001352A44B8F8065092B2C5B108EBC501BE
S315080027F0DCF80050013DCCF8005014F8085C6FF383
S31508002800000504F8085C002524F8065C541E5C8064
S315080028101C7865F300041C700029BAD18BE7294699
S31508002820E6E7222049E700BF041900200019002026
S31508002830F8180020FC1800200249034A0160521AC1
S3150800284042607047082700200000042030B50E4C6F
S31508002850416123688BB9206083600DE0891A9A6804
S315080028601D4641616AB113465A698A42F6D935B19D
S31508002870A860521A83605A6130BD0025F4E72060CB
S31508002880F7E798608260F7E71019002038B500F07E
S3150800289077F90025084B094C1A682368C31A2AB128
S315080028A023B15169994203D3C91A5161206038BDD1
S315080028B055615B1A9268F2E7101900200C1900207E
S315080028C038B5134D2B685B6993B1124A0220146818
S315080028D01C4401F038FE204600F05AF900230E4940
S315080028E02A680B70D088800709D501230B7038BD7C
S315080028F0022001F028FE022000F098F9EEE792681F
S31508002900002AF4D050690344012BEBD9EFE700BF46
S31508002910101900200C190020E525002000220C497A
S315080029200B687BB183420AD183687AB19360836866
S315080029301BB15A6941690A445A61002070471A4610
S315080029409B68EEE70028EFD0022070470B60EEE7A1
S315080029501019002070B501F0F7FC144E05463478BE
S31508002960FCB9134B1C60134B1C60134B1C8000F006
S31508002970D3F8012001F0E7FD00F060F90F4B02469D
S31508002980186020B9284601F0E5FC232070BD2346CF
S3150800299040F2E7310A4801F0ADFA0A4B1860012304
S315080029A03370284601F0D6FC0020EFE7E625002024
S315080029B0101900200C190020E02500201419002009
S315080029C018FCFFFF08190020C2072DE9F047044646
S315080029D00BD54D4A138801339BB21380FFF756FF78
S315080029E04A4B1B680BB1FFF76BFFA30740F18A80C0
S315080029F001F0AAFC4FF0000905464E46FFF746FFD0
S31508002A00C846424F3C680CB163698BB10022404B03
S31508002A10012E1A7003D119F0020F18BF1E70002C70
S31508002A206CD0FFF74DFF2846BDE8F04701F092BC91
S31508002A3023465A693AB91A792179914288BF1C46C0
S31508002A409B68002BF5D1284601F084FC2569DDB189
S31508002A5000F096F8A269A0EB02094FEAE9734D4522
S31508002A6078EB030311DA23691344A361E368B4F826
S31508002A700690013613B120462168984701F064FC98
S31508002A800546FFF703FFBDE7A94601F05DFC824650
S31508002A902046FFF743FF504601F05CFC2369002BF4
S31508002AA0E4D0B5EB09054FEAE97363EB4303002B62
S31508002AB004DA40F23451174801F03EFCA38B33B1D7
S31508002AC0E28B13449BB2B3F57A7F0FD2E38301F00E
S31508002AD03BFC814629462046FFF7B8FEA3692269D2
S31508002AE048461344A36101F035FCBFE7A3F57A73A2
S31508002AF0E383A369013D013BA361E8E7022000F0F7
S31508002B007FF890E7BDE8F087E0250020101900203F
S31508002B10E4250020B54C000810B50123002486B032
S31508002B201548ADF80830CDE903448DF804408DF812
S31508002B300A40059401F085FC01A8FFF743FB2046EF
S31508002B4002A98DF80840FFF74DFB20460F21FFF735
S31508002B507BFB0F212046FFF785FBFFF719FBFFF7E5
S31508002B60F5FA064B43209C61FFF732FD4320FFF739
S31508002B7015FD06B010BD00BF244C000800800A50A1
S31508002B8008B5FFF7E3FA014B986908BD00800A50BB
S31508002B90F8B5044601F0D1FB0746FFF7D7FA164BFE
S31508002BA09D6901F0CCFC06460020FFF769FB830708
S31508002BB004D4731B032B01D8AE420FD10021631B2B
S31508002BC0022B98BFEC1C0846B4F1FF3F2CBF2246E7
S31508002BD0621EFFF77DFB022001F0B5FC384601F0C6
S31508002BE0B0FB064A137833B103498B6C43F00103F3
S31508002BF08B6400231370F8BD00800A50FE2600205F
S31508002C00830700F0010109D50122064B41F00201B4
S31508002C101A70054A936C23F0010393640020FFF7AA
S31508002C2013BB00BFFE26002000800A50830742BF60
S31508002C300222014B1A64704700900A5007B5044BEC
S31508002C4001A9187901F0F8FB019803B05DF804FBB7
S31508002C502C4C000810B50446FDF772FD4FF47A7245
S31508002C609042B0FBF2F105D23621BDE810400C487F
S31508002C7001F062BB0B4BB3FBF1F30B49884201D958
S31508002C803C21F2E702FB04F0B0FBF3F0022806D978
S31508002C90BDE810400323B0FBF3F0FDF769BA10BD99
S31508002CA01C4D000840420F00E7CD9A3BEFF3058321
S31508002CB073B9EFF31082094B12B9EFF3118212B10F
S31508002CC01A68022A04D0186828B901221A607047BF
S31508002CD06FF0050070474FF0FF307047C81E0020A0
S31508002CE010B5EFF30583BBB9EFF310830D4C13B999
S31508002CF0EFF3118313B12368022B0DD02368012B40
S31508002D000DD16FF004000021FFF770FC0223236049
S31508002D1000F080FB002010BD6FF00500FBE74FF0C8
S31508002D20FF30F8E7C81E002040F67411014801F08C
S31508002D3003BB00BF7B4D0008034B0360034B0B60CE
S31508002D40A0231360704700BF701E0020F01B0020F0
S31508002D50034B0360034B0B60A0231360704700BF4F
S31508002D60981B00201819002038B50D46044620B9CE
S31508002D704FF48D71164801F0DFFA01F023F8D4E913
S31508002D800F314B432268D0185B1AA060626000209E
S31508002D901A44FF23A063E26084F8443084F845307F
S31508002DA065B9236933B104F1100000F02DFD08B1AF
S31508002DB001F043FD01F014F8012038BD04F11000BC
S31508002DC001F000FC04F1240001F0FCFBF2E700BF6F
S31508002DD0E54D0008F7B50D4616461C46074620B9C8
S31508002DE040F25511194801F0A7FA24B940F25911D1
S31508002DF0164801F0A1FA1EB945B14FF4AF7102E0C9
S31508002E0025B940F25D11114801F096FA5023019355
S31508002E10019B502B04D04FF4B3710C4801F08CFA87
S31508002E20019B7CB10121002D08BF26462046C4E936
S31508002E300F7584F846102660FFF796FF9DF8203038
S31508002E4084F84C30204603B0F0BD00BFE54D0008BD
S31508002E50F0B585B00E461D460446019220B940F2EB
S31508002E601931494801F068FA36B9236C23B140F2A2
S31508002E701A31454801F060FA022D07D1E36B012BA0
S31508002E8004D040F21B31404801F056FA00F042FDEA
S31508002E9030B9019B23B140F21E313B4801F04CFA90
S31508002EA000F090FFA26BE36B9A421FD22A46314686
S31508002EB0204601F0D2FB636A1BB104F1240000F03E
S31508002EC0A3FC08B101F0B9FC00F08AFF012005B0A7
S31508002ED0F0BD00F077FFA26BE36B9A42E6D30123BD
S31508002EE0019A42B900F07CFF0020F0E7022DDDD000
S31508002EF000231F46F4E713B902A800F0C3FC00F04C
S31508002F006FFF00F0C9FA00F05DFF94F84430FF2B1C
S31508002F1008BF84F8447094F84530FF2B08BF84F83E
S31508002F20457000F05DFF01A902A800F0B7FC20BBC0
S31508002F3000F048FFA26BE36B9A4210D100F050FFF5
S31508002F40019904F1100000F025FC204601F0CEFBA3
S31508002F5000F044FB0028BCD101F06FFC06E000F04D
S31508002F603FFF204601F0C2FB00F038FB00F02AFFC5
S31508002F70A36BE26B9A42B2D998E7204601F0B6FBFA
S31508002F8000F02CFBB0E700BFE54D00082DE9F8433B
S31508002F90884617469946044620B940F2ED31264838
S31508002FA001F0CAF9B8F1000F06D1236C23B140F23B
S31508002FB0EE31214801F0C0F9B9F1020F0DD001F048
S31508002FC059FCA26BE36B05469A4212D300242846A5
S31508002FD001F05BFC2046BDE8F883E36B012B04D0C7
S31508002FE040F2EF31144801F0A7F901F043FC054619
S31508002FF0A36B94F845604A464146204676B2A36BD1
S3150800300001F02BFB731C0BD1636A3BB104F124005E
S3150800301000F0FAFB10B10FB101233B600124D6E79B
S315080030207F2E04D14FF48F61034801F085F90136EC
S3150800303076B284F84560F1E7E54D0008F0B585B04D
S315080030400E460446019220B940F23C513C4801F034
S3150800305073F936B9236C23B14FF4A861384801F0E7
S315080030606BF900F057FC30B9019B23B140F245518A
S31508003070334801F061F900F0A5FEA56B9DB1314614
S315080030802046013D01F01CFBA563236933B104F119
S31508003090100000F0B9FB08B101F0CFFB00F0A0FE6C
S315080030A0012005B0F0BD019BABB302A800F0EAFB16
S315080030B02F4600F095FE00F0EFF900F083FE94F835
S315080030C04430FF2B08BF84F8447094F84530FF2B32
S315080030D008BF84F8457000F083FE01A902A800F035
S315080030E0DDFB10BB204601F0ADFAC0B1019904F131
S315080030F0240000F04FFB204601F0F8FA00F06EFAC3
S3150800310008B901F09AFB00F05DFEA56B002DB6D15B
S31508003110019B002BCDD100F063FE0020C1E72046BD
S3150800312001F0E4FA00F05AFAEDE7204601F0DEFA7B
S3150800313000F054FA204601F085FA0028E3D0ECE7BF
S31508003140E54D0008002330B5064A52F8335002EB25
S31508003150C3041DB942F83310606030BD01330A2B31
S31508003160F3D1FAE7CC1E00202DE9F041044600F021
S3150800317029FE2D4B2D4E1A682D4F01321A603568DF
S31508003180002D43D134601B68012B1FD1B846404639
S31508003190013501F017FA382D08F11408F7D1DFF8D0
S315080031A0B880244D404601F00DFA284601F00AFA87
S315080031B0214801F007FA214801F004FA204801F0F5
S315080031C001FA204BC3F800801F4B1D6014201F4ACC
S315080031D01368013313601E4A23641168E36A8B423D
S315080031E000FB037004F1040188BF136001F0F8F9CD
S315080031F000F0F6FD174B1B689BB13368DA6AE36A81
S315080032009A420ED2BDE8F04101F017BB114B1A687D
S31508003210E36A002ADAD13268D26A9A4298BF3460E1
S31508003220D4E7BDE8F08100BF401F00201424002029
S31508003230B41F00208C1F0020701F00205C1F002078
S31508003240441F0020881F0020841F0020241F002000
S31508003250381F0020341F0020A01F0020F8B506469E
S31508003260144B154D1C6828680F46043001F0DAF92E
S31508003270731C07D137B1296810480431BDE8F840F6
S3150800328001F0AEB92B68A4195C6007D30C4B18681B
S315080032902968BDE8F840043101F0ADB9094B186852
S315080032A02968043101F0A7F9074B1A68A24288BFBA
S315080032B01C60F8BD3C1F002014240020441F002079
S315080032C0841F0020881F0020201F0020064A13683C
S315080032D01968064B19B94FF0FF321A607047126821
S315080032E0D2681268F9E700BF881F0020201F002057
S315080032F010B590F8553004463BB9006B01F0CCFA8E
S315080033002046BDE8104001F0C7BA012BF9D0022BC0
S3150800331006D0BDE8104040F69771024801F00CB897
S3150800332010BD00BF454E000880B50F4C0F4F104D1D
S31508003330236833B90F4B1B68012BF8D901F07DFAC6
S31508003340F5E700F03FFDFB68DE68301D01F06AF91D
S315080033502B68013B2B602368013B236000F040FD8E
S315080033603046FFF7C5FFE3E7581F00205C1F002023
S31508003370401F0020B41F00202DE9F04387B0054602
S31508003380DDE90F940E4617469846B9F1000F1DD091
S315080033905CB358230593059B582B2CD1059B022318
S315080033A084F8553004ABC4F8309001930E9B284638
S315080033B000933A4643463146029401F0F2F9204614
S315080033C0FFF7D2FE049807B0BDE8F08340F2552116
S315080033D00F4800F0B1FF44B158230593059B582BBD
S315080033E00FD1059B00230493ECE740F256210848C9
S315080033F000F0A2FFF0E740F25E21054800F09CFFCE
S31508003400CCE740F25E21024800F096FFE9E700BFEC
S31508003410454E000830B5002589B007AA06A905A8B3
S31508003420CDE90555FFF788FC059B079A0293069B8D
S315080034301249CDE9005312482B46FFF79DFF80B18C
S3150800344000F008FB012804460FD101F013FA4FF0EB
S31508003450FF320C4B1A600C4B1C600C4B1D6000F0C5
S315080034602BFD0B4B1B6809B030BD0134F9D140F672
S315080034704301084800F060FFF3E700BFA54E0008C7
S3150800348029330008201F0020341F00203C1F00207D
S3150800349098260020454E0008024A13680133136037
S315080034A0704700BF1C1F0020014B1868704700BFFB
S315080034B03C1F00203D4B2DE9F74F1B68002B6ED1B2
S315080034C03B4B1C6801341C609CB93A4D2B681B6841
S315080034D023B140F6C921384800F02EFF374B2A6839
S315080034E0196829601A60364A136801331360FFF7B2
S315080034F0EDFE344D4FF0000B2B68334E9C42334F94
S3150800350012D214213A68D26A4A43B258022A304A79
S3150800351028BF4FF0010B1268002A18BF4FF0010BA5
S31508003520584603B0BDE8F08FDFF88890DFF8A8A00A
S31508003530D9F8002012681AB94FF0FF322A60E0E77E
S31508003540D9F80020D268D2F80C80D8F804108C423A
S3150800355001D22960D5E708F104031846019301F062
S3150800356061F8D8F8281019B108F1180001F05AF8CE
S315080035701423D8F82C00DAF80010884288BFCAF855
S315080035800000019903FB006001F02AF83868D8F8B2
S315080035902C10C26A914228BF4FF0010BC8E70D4AAA
S315080035A04FF0000B136801331360B9E71C1F0020A6
S315080035B03C1F0020881F0020454E0008841F00205D
S315080035C0281F0020201F0020B41F002014240020DC
S315080035D02C1F0020301F0020381F00202DE9F04145
S315080035E02A4C236823B940F6B601294800F0A4FE00
S315080035F000F0E8FB2368013B236024682CB1002413
S3150800360000F0EEFB2046BDE8F081224B1B68002B3C
S31508003610F5D0214D214EDFF894801DE0EB68DC687B
S31508003620271D04F1180000F0FDFF384600F0FAFFE8
S315080036301420E36A326800FB03809342394688BF48
S31508003640336000F0CDFF164BE26A1B68DB6A9A42CC
S3150800365002D30122134B1A602B68002BDED10CB162
S31508003660FFF734FE104D2C6844B101270D4EFFF7C5
S3150800367021FF00B13760013CF9D12C60094B1B686A
S31508003680002BBCD001F0D9F80124B9E71C1F002093
S31508003690454E0008401F0020701F0020381F0020DC
S315080036A0142400202C1F0020301F0020B41F0020E7
S315080036B010B5044618B9BDE8104001F0BEB8094B6C
S315080036C01B6823B140F24C51074800F035FE002133
S315080036D02046FFF7E1FEFFF7C1FDFFF77FFF002851
S315080036E0E9D010BD1C1F0020454E0008234B2DE9CC
S315080036F0F0411A68224B1AB101221A60BDE8F0811E
S31508003700204E1A6033681B6B1A68B2F1A53F0BD1BD
S315080037105A68B2F1A53F07D19A68B2F1A53F03D11D
S31508003720DB68B3F1A53F04D0306831683431FFF760
S31508003730FBFA154F154D3C68DFF854801423634394
S31508003740E958EA1889B15168083349682B449942FF
S3150800375008BF4B68516008BF5360142303FB045528
S315080037606B68DB6833603C60C8E724B940F60441FF
S31508003770404600F0E1FD013CE0E700BF1C1F0020C9
S315080037802C1F002014240020381F0020B41F0020FE
S31508003790454E000838B50D46044620B940F61E4188
S315080037A0074800F0C9FD074B20461968183100F094
S315080037B022FF2846BDE838400121FFF74FBD00BF6C
S315080037C0454E00081424002070B50E4614460546DA
S315080037D020B940F64D410A4800F0AEFD094B28468F
S315080037E01968183100F0FCFE002C214608BF304647
S315080037F0BDE8704018BF4FF0FF30FFF72FBD00BF80
S31508003800454E00081424002038B5C368DC6824B97E
S3150800381040F67D41144800F08FFD04F1180528464E
S3150800382000F000FF114B1B68DBB9251D284600F088
S31508003830F9FE0F4A14201168E36A8B42294688BFAD
S3150800384013600C4A00FB032000F0CAFE0A4BE26A2A
S315080038501B68DB6A9A4285BF0120084B0020186066
S3150800386038BD29460648EFE7454E00081C1F0020CC
S31508003870381F0020B41F0020142400202C1F00200D
S31508003880701F0020034B1B680360034B1B684360D3
S31508003890704700BF281F00203C1F002070B50D464A
S315080038A0044620B940F6F841144800F045FD25B90C
S315080038B040F6F941114800F03FFD00F083FA104B3D
S315080038C019682B685A1C17D00E4826680068626863
S315080038D0864208D08A4206D8002301242B6000F0CD
S315080038E07FFA204670BD881A8342F5D95B1A1344BD
S315080038F020462B60FFF7C6FF0024F0E7454E000878
S315080039003C1F0020281F00200122014B1A60704727
S315080039102C1F0020054B1B6833B1054B1868B0FAFD
S3150800392080F040094000704701207047341F00208E
S315080039301C1F002038B5044608B9002038BD184BAE
S315080039401B68834204D041F24A01164800F0F4FC91
S31508003950E36C23B941F24B01124800F0EDFCE36C2D
S31508003960E16AA26C013B9142E364E6D0002BE4D104
S31508003970251D284600F056FE1420A36CC3F1380214
S31508003980A261094AE36211688B4288BF1360074A3D
S31508003990294600FB032000F023FE0120CEE700BFE6
S315080039A014240020454E0008381F0020B41F0020AC
S315080039B0914208B5416000610AD8D21A83699A42D1
S315080039C00DD2084B011D186800F015FE002008BD31
S315080039D09A4201D2994202D2034B011DF3E7012014
S315080039E0F5E700BF7424002078240020F7B5114CB1
S315080039F000F0E8F92568BDB90F4F104E384600F0BB
S31508003A00E1FD304600F0DEFD0D4B10211F600D4B29
S31508003A100A201E600C4A0D4B0095FFF7DBF9206063
S31508003A2010B10B49FFF78EFB03B0BDE8F04000F07C
S31508003A30D7B900BF70240020902400207C240020E1
S31508003A407824002074240020E7250020182400206C
S31508003A50AA4E000810B588B0FFF7C8FF114B1B68BF
S31508003A60CBB1002407AA06A905A8CDE90544FFF7A6
S31508003A706FF9059B079A0293069B0B490193282326
S31508003A800A4800932346FFF777FC094B186010B1E4
S31508003A90012008B010BD07484FF48D7100F04CFCAA
S31508003AA00020F6E770240020AF4E0008B53B00085A
S31508003AB06C240020B74E00082DE9FF410C469046BD
S31508003AC01E46054620B940F28F11104800F034FC16
S31508003AD00F4F386880B1052CCDE9004802950EDCF9
S31508003AE0FFF718FF0023022818BF1A46694608BFC1
S31508003AF00A9A3868FFF7ACF904B0BDE8F0810023EC
S31508003B0032466946FFF742FAF6E700BFB74E0008A5
S31508003B10702400202DE9F3470646FFF7C5FCDFF8B9
S31508003B2090800546D8F80030834209D91D4F3B6876
S31508003B301A686AB91C4A116813603960012300E0E3
S31508003B40002328463360C8F8005002B0BDE8F08765
S31508003B50DB68DC68D3F8009004F1040A504600F0EC
S31508003B6061FD236A2046984794F828305B07DED51E
S31508003B70A3694B44994506D2514638686360246167
S31508003B8000F039FDD3E700234A461946204600933C
S31508003B90FFF792FF0028CAD140F2B631034800F079
S31508003BA0CBFBC4E77824002074240020B74E000815
S31508003BB0682400202DE9F0474FF00008684E88B0C9
S31508003BC033681D68002D55D00024DB681D68FFF793
S31508003BD063FC04A8FFF79EFF049B8246614F002BF7
S31508003BE062D1002C4DD1A84251D3FFF7F7FC3368B8
S31508003BF0DB68D3F80C9009F1040000F013FD99F87E
S31508003C002830580738D5D9F818102B465246484652
S31508003C102944FFF7CDFE60B123462A462146484689
S31508003C200094FFF749FF20B940F221214E4800F0E1
S31508003C3083FB4846D9F8203098470022386804A9FB
S31508003C40FFF7FCF90028BBD0049B0698002B2EDB57
S31508003C50069C6369002B31D103A8FFF75BFF049B21
S31508003C600546092BE9D8DFE803F02D2D2D555C72A2
S31508003C702D2D555C0124AAE723F0010389F8283085
S31508003C80D7E73A4B1B681C68B4FA84F464092246E1
S31508003C903868A5EB0A0100F061FDFFF79FFC0028D4
S31508003CA0CBD100F0CAFDC8E7FFF798FCC5E7059B2E
S31508003CB007999847049B002BBFDBC9E7201D00F036
S31508003CC0B1FCC9E794F82830A16943F0010384F8E8
S31508003CD02830059B024619442046FFF769FE00284E
S31508003CE0ABD0236A2046984794F828305907A4D5BC
S31508003CF00023A269059920460A44CDF80080194692
S31508003D00FFF7DAFE002898D140F24331164800F052
S31508003D1013FB92E794F8283023F0010384F828303F
S31508003D208BE794F8283043F0010384F82830059B84
S31508003D30A36123B94FF457710B4800F0FDFAA16946
S31508003D402B462A4620462944FFF732FE75E794F8A3
S31508003D5028309A07E0D4204600F09EFD6DE700BFA4
S31508003D607824002070240020B74E00087424002010
S31508003D70002307B50193084B1B68013304D04FF4A1
S31508003D801571064800F0D8FA00F074FD019B002B67
S31508003D90FCD003B05DF804FB9C260020184F0008F1
S31508003DA04FF0E02200234FF47A7113619361044BBC
S31508003DB01B68B3FBF1F3013B53610723136170479B
S31508003DC08826002008B500F055FD044A136801331B
S31508003DD01360BFF34F8FBFF36F8F08BD9C2600207B
S31508003DE010B5094C236823B940F2ED21074800F0C5
S31508003DF0A3FA2368013B2360206818B9BDE8104080
S31508003E0000F043BD10BD00BF9C260020184F0008D7
S31508003E10836913F8023C022B0FD14FF0E023D3F845
S31508003E20882D42F47002C3F8882DD3F8342F42F057
S31508003E304042C3F8342FFCF7A3B940F27731014862
S31508003E4000F07ABA184F000810B54FF0807440E9B0
S31508003E500224184A4FF0123440F80C2C4FF0033263
S31508003E604FF0023C40E905244FF0013240F8203C6F
S31508003E7040E9072C4FF010334FF011324FF0093458
S31508003E8040E90A324FF008334FF0073C40E90C345A
S31508003E904FF006334FF0053240E90E3C4FF004333D
S31508003EA040E910326FF0020340F8443C40F8481DE0
S31508003EB010BD00BF713D00084FF0E02310B5002487
S31508003EC0D3F8202D42F47F02C3F8202DD3F8202DF5
S31508003ED042F07F42C3F8202DFFF762FF044B1C60B7
S31508003EE0FCF76EF9FFF702FCFFF742FF204610BD0C
S31508003EF09C26002053B94AB9002908BF00281CBFD0
S31508003F004FF0FF314FF0FF3000F082B9ADF1080CE9
S31508003F106DE904CE00F006F8DDF804E0DDE90223D9
S31508003F2004B070472DE9F04F099D0C46002B4DD182
S31508003F308A420F4684469646B2FA82F360D94BB156
S31508003F4002FA03FEC3F120029F4000FA03FC20FA9E
S31508003F5002F217434FEA1E461FFA8EF44FEA1C4236
S31508003F60B7FBF6F106FB117701FB04F042EA0742BC
S31508003F70904208D91EEB020201F1FF3702D29042A5
S31508003F8000F231813946121A1FFA8CFCB2FBF6F0A0
S31508003F9006FB102200FB04F44CEA024C644508D9DF
S31508003FA01EEB0C0C00F1FF3202D2644500F21E81B2
S31508003FB0104640EA0140ACEB040C002125B12CFA6E
S31508003FC003F30022C5E90032BDE8F08F8B4205D91C
S31508003FD00DB1C5E9000100210846F5E7B3FA83F1FA
S31508003FE000294DD1A342C0F0F380904280F0F080C2
S31508003FF0064623460846002DE6D0C5E90063E3E7F2
S31508004000002B40F0A3808A1A4FEA1E471FFA8EF645
S315080040100121B2FBF7F407FB14204FEA1C4242EADF
S31508004020004206FB04F090420FD91EEB020204F18F
S31508004030FF382CBF4FF001094FF00009904203D911
S31508004040B9F1000F00F0CC804446121A1FFA8CFC16
S31508004050B2FBF7F007FB102200FB06F64CEA024C0F
S31508004060664508D91EEB0C0C00F1FF3202D26645F4
S3150800407000F2B3801046ACEB060C40EA04409DE71C
S31508004080C1F120068B4004FA01FE22FA06F720FA4F
S3150800409006FCF4408A401F434EEA0C0300FA01FE70
S315080040A04FEA17484FEA13491FFA87FCB4FBF8F0A2
S315080040B008FB104449EA044400FB0CF9A1450ED953
S315080040C03C1900F1FF3A2CBF4FF0010B4FF0000BE3
S315080040D0A14503D9BBF1000F00F08B805046A4EB35
S315080040E009041FFA83F9B4FBF8F308FB134403FB2E
S315080040F00CFC49EA0444A44506D93C1903F1FF38E7
S3150800410001D2A4457BD8434643EA0040A4EB0C04FD
S31508004110A0FB02984445CC46434602D306D1CE4579
S3150800412004D20138B9EB020C68EB0703002D6CD0FA
S31508004130BEEB0C0264EB030422FA01F304FA06F65A
S31508004140CC4000211E43C5E900643DE702FA03FEA0
S31508004150C3F1200104FA03F200FA03FCCC404FEA4B
S315080041601E4720FA01F11FFA8EF6B4FBF7F00A4350
S3150800417007FB1044110C41EA044100FB06F48C428B
S315080041800ED91EEB010100F1FF382CBF4FF00109D3
S315080041904FF000098C4202D9B9F1000F2CD04046E5
S315080041A0091B92B2B1FBF7F407FB141142EA01426C
S315080041B004FB06F1914207D91EEB020204F1FF380F
S315080041C001D291421ED84446521A44EA004120E7D9
S315080041D0861A64EB030301200DE7F44402384AE724
S315080041E0023C724431E702397244CCE6F4440238A0
S315080041F0DFE602383C4472E702387144D0E7023BF6
S315080042003C4481E7023C7244DEE72946DCE600BF0F
S31508004210704700BF08B5064B044613B10021AFF33B
S315080042200080044B1B6803B19847204600F095F8B8
S3150800423000000000DC25002070B50D4D00260D4C51
S31508004240641BA410A64209D10B4D00260B4C00F0A6
S3150800425047FB641BA410A64205D170BD55F8043B64
S3150800426001369847EEE755F8043B01369847F2E7DA
S315080042700027002000270020002700200427002010
S31508004280024B0146186800F051B900BFA02600206D
S31508004290FCF77EB838B54FF47A73846905465C43F3
S315080042A0B4FBF3F42046FFF703FA284600F059F862
S315080042B0F8E708B500F06AF9FFF7EAFF00F073F9C6
S315080042C0002008BD704708B500F023F9FCF7FAF896
S315080042D000F01DF9FEF73AF900F0ACF8FEF74CF9D4
S315080042E0FEF7ACF9FCF7E2F8BDE80840FEF7DEBCDD
S315080042F0FEF7F6BCFCF7C8B808B500F006F8BDE846
S315080043000840FEF727BB704770470F207047FEE747
S315080043104AB1002310B550F8234041F82340013331
S315080043209342F8D110BD7047002070474FF4004003
S3150800433070474FF47A707047FEE7EFF3108072B655
S31508004340704700B962B67047EFF31180302383F3E4
S315080043501188704780F311887047FEE7D0E900039B
S315080043601847036900681847034659789B78007808
S315080043700BB9FCF75DBAFCF779BA034659789B780E
S3150800438000780BB9FCF772BAFCF752BA70B5054655
S3150800439014460E46FFF7D1FF2B685C4034405C405C
S315080043A02C60BDE87040FFF7CCBF08B5FCF7DAF91A
S315080043B0BDE808400021FCF705BE0029CCBF012155
S315080043C00021FCF7FFBD02214FF42070FDF754BA17
S315080043D038B50446FCF7B4F90546FCF7BBFAC0F154
S315080043E002012846FFF7E9FF01210020FDF7A4FC9A
S315080043F00CB1FDF7E7FABDE83840FCF739BF70475E
S31508004400704770B5054614460E46FFF796FF2B68AB
S315080044105C4034405C402C60BDE87040FFF791BFBB
S3150800442083695A06FCD5C16383699B06FCD5406A35
S31508004430C0B2704700F00BB809B100F00AB82220E4
S3150800444070470121FDF758BF0021FDF755BF002031
S31508004450704770B506460D46FFF776FF04461F2ED1
S3150800446052D8DFE806F01019511E212451272A5187
S315080044702D5130335136393C513F514251515151EA
S31508004480455148514B4EFCF741F900262860204615
S31508004490FFF760FF304670BD4FF4C070FCF7E6FDCD
S315080044A0F3E74FF42070F9E74FF44070F6E74FF45E
S315080044B06070F3E74FF40070F0E74FF48060EDE7C3
S315080044C04FF44060EAE74FF4C060E7E74FF4F06066
S315080044D0E4E74FF4B060E1E74FF4D060DEE74FF46D
S315080044E01060DBE74FF4E060D8E74FF4A060D5E74B
S315080044F04FF42860D2E74FF48070CFE74FF420607E
S31508004500CCE74FF44860C9E700202126BEE7FDF74F
S315080045101DBF10B56FF00404204605210134FEF7CF
S3150800452065F84C2CF8D110BDFEF7B0B80846FFF771
S31508004530FBBF0023038043808380C380704700212C
S315080045400846FDF7ADBE00F00101830748BF41F0FC
S3150800455002010020FDF76ABE38B5FFF7F5FE0446EE
S315080045600020FDF78DFE830700F0010548BF45F0E2
S31508004570020500F003010020FDF774FE2846FEF749
S3150800458023FA2046BDE83840FFF7E4BE08B5FFF732
S315080045909AFEFFF7AFFEFFF7AFFEFFF7B4FEBDE8E2
S315080045A00840FFF7B1BEFFF7A3BE08B54FF0E023FA
S315080045B01B69FFF7AFF9012803D0BDE8084000F0F2
S315080045C047B908BD4FF0FF3200F10803C0E90223DE
S315080045D0436003610023036070470023036170474B
S315080045E043689A684B608A605160996003680861FD
S315080045F001330360704730B50C68631C0AD1036940
S315080046005A684A6091608B60596003680861013393
S31508004610036030BD00F10802134652681568A542CA
S31508004620FAD9EDE70369D0E901128A605160596841
S31508004630814208BF5A60002202611A68013A1A606C
S315080046401868704710B50446FFF7BCFBA46BFFF764
S31508004650C7FBB4FA84F0400910BD70B51646026C63
S315080046600446856B42B906689EB98068FFF762F909
S31508004670A6600135A56370BD6EB9406800F019F9EA
S315080046806368226C1344A2686360934224BF23685C
S3150800469063600020EDE7C06800F00BF9226CE36860
S315080046A051429B1A2268E36093423EBFA3685B1897
S315080046B0E360022EEDD10DB1013DEAE72846D8E7C1
S315080046C003461A6C084610B46AB1DC689968144443
S315080046D08C4228BF1968DC6028BFD960D9685DF8A4
S315080046E0044B00F0E6B85DF8044B704770B5044615
S315080046F0FFF768FB94F8455004F124066DB2002DC7
S3150800470014DCFF2384F84530FFF76AFBFFF75AFBF2
S3150800471094F8445004F110066DB2002D12DCFF2304
S3150800472084F84430BDE87040FFF75ABB636A002B33
S31508004730E7D03046FFF768F808B1FFF7E5F8013D1E
S315080047406DB2DCE72369002BE9D03046FFF75CF849
S3150800475008B1FFF7D9F8013D6DB2DEE770B504463A
S315080047600D461646FFF72EFB94F84430FF2B04BF80
S31508004770002384F8443094F84530FF2B04BF002307
S3150800478084F84530FFF72CFBA36B2BB93246294634
S3150800479004F12400FFF718F82046BDE87040FFF73B
S315080047A0A5BF2DE9F0470D46DDE909949600324686
S315080047B00746A521206B984600F088F8236B043E2F
S315080047C01E4426F00706ADB36B1E04F13302093505
S315080047D013F8011F02F8011F09B1AB42F8D10023F3
S315080047E084F83D30089D4FF0000A372D28BF37253D
S315080047F0201DE562A564C4F84CA0FFF7EEFEC5F1DE
S31508004800380504F11800FFF7E8FE43463A463046F5
S31508004810216B2461A5616462C4F850A084F854A091
S31508004820FFF712FB2060B9F1000F01D0C9F800406C
S31508004830BDE8F08784F83450D4E74FF0E0234FF012
S315080048408052C3F8042DBFF34F8FBFF36F8F7047A5
S3150800485010B500F00FF80446FEF72CFE28B14FF00D
S31508004860E0234FF08052C3F8042D2046BDE81040DF
S3150800487000F00BB8EFF311804FF0300181F3118887
S31508004880BFF34F8FBFF36F8F704780F31188BFF365
S315080048904F8FBFF36F8F704710B5044640B1FEF7D0
S315080048A0FBFD2046FFF7ECFCBDE81040FEF796BE80
S315080048B010BD0A44431E914200D1704710B511F845
S315080048C0014B914203F8014FF9D110BD024403464A
S315080048D0934200D1704703F8011BF9E70000000076
S315080048E0F8B500BFF8BC08BC9E467047F8B500BFCF
S315080048F0F8BC08BC9E467047626C696E6B20746192
S31508004900736B002E2E2F626C696E6B2E630000008F
S31508004910F4260020A9080008694300087B4300081C
S31508004920CD08000809090008F7260020A90800088C
S31508004930694300087B430008CD08000809090008F8
S31508004940FA260020A9080008694300087B430008E6
S31508004950CD0800080909000805000000000000004D
S3150800496040420F00050100000000000000000000A2
S31508004970000000002F686F6D652F646576656C6FA3
S315080049807065722F53696D706C69636974795374B5
S315080049907564696F2F53444B732F73696D706C6917
S315080049A0636974795F73646B5F322F2F706C6174FF
S315080049B0666F726D2F656D6C69622F696E632F6500
S315080049C06D5F6770696F2E680000FF000F00FF03B8
S315080049D03F002F686F6D652F646576656C6F70652F
S315080049E0722F53696D706C69636974795374756451
S315080049F0696F2F53444B732F73696D706C696369C4
S31508004A0074795F73646B5F322F706C6174666F7252
S31508004A106D2F656D6C69622F7372632F656D5F63A9
S31508004A206D752E63002F686F6D652F646576656CEE
S31508004A306F7065722F53696D706C69636974795309
S31508004A40747564696F2F53444B732F73696D706C5B
S31508004A5069636974795F73646B5F322F706C617414
S31508004A60666F726D2F656D6C69622F7372632F6541
S31508004A706D5F656D752E63002F686F6D652F6465B4
S31508004A8076656C6F7065722F53696D706C696369B2
S31508004A90747953747564696F2F53444B732F736914
S31508004AA06D706C69636974795F73646B5F322F70BC
S31508004AB06C6174666F726D2F656D6C69622F7372A7
S31508004AC0632F656D5F6770696F2E6300FF000F00C7
S31508004AD0FF033F002F686F6D652F646576656C6F01
S31508004AE07065722F53696D706C6963697479537454
S31508004AF07564696F2F53444B732F73696D706C69B6
S31508004B00636974795F73646B5F322F706C61746666
S31508004B106F726D2F656D6C69622F7372632F656D89
S31508004B205F75736172742E63002F686F6D652F64ED
S31508004B306576656C6F7065722F53696D706C696305
S31508004B4069747953747564696F2F53444B732F7363
S31508004B50696D706C69636974795F73646B5F322F12
S31508004B60706C6174666F726D2F70657269706865B6
S31508004B7072616C2F7372632F736C5F68616C5F73FD
S31508004B8079737274632E63002F686F6D652F646581
S31508004B9076656C6F7065722F53696D706C696369A1
S31508004BA0747953747564696F2F53444B732F736903
S31508004BB06D706C69636974795F73646B5F322F2FEC
S31508004BC0706C6174666F726D2F656D6C69622F69A2
S31508004BD06E632F656D5F6275732E6800012600008F
S31508004BE004000000000000000001000000000000B2
S31508004BF00B0000000C00000003000000000020204D
S31508004C0000000000030000003C3C3C0000000000DF
S31508004C100000000000000000010310010109030064
S31508004C20090000001E0000001A00000000800A505B
S31508004C3013000000244C00082F686F6D652F64650B
S31508004C4076656C6F7065722F53696D706C696369F0
S31508004C50747953747564696F2F53444B732F736952
S31508004C606D706C69636974795F73646B5F322F70FA
S31508004C706C6174666F726D2F736572766963652FE2
S31508004C80696E746572727570745F6D616E61676561
S31508004C90722F7372632F736C5F696E7465727275A7
S31508004CA070745F6D616E616765725F636F7274655C
S31508004CB0786D2E63002F686F6D652F646576656C59
S31508004CC06F7065722F53696D706C69636974795377
S31508004CD0747564696F2F53444B732F73696D706CC9
S31508004CE069636974795F73646B5F322F706C617482
S31508004CF0666F726D2F736572766963652F736C655F
S31508004D00657074696D65722F7372632F736C5F7348
S31508004D106C65657074696D65722E63002F686F6DBA
S31508004D20652F646576656C6F7065722F53696D7053
S31508004D306C696369747953747564696F2F53444B4E
S31508004D40732F73696D706C69636974795F73646BCB
S31508004D505F322F706C6174666F726D2F7365727631
S31508004D606963652F7564656C61792F7372632F7338
S31508004D706C5F7564656C61792E63002F686F6D656D
S31508004D802F646576656C6F7065722F53696D706CEC
S31508004D90696369747953747564696F2F53444B73E7
S31508004DA02F73696D706C69636974795F73646B5F7F
S31508004DB0322F7574696C2F74686972645F706172DA
S31508004DC074792F6672656572746F732F636D736974
S31508004DD0732F536F757263652F636D7369735F6F96
S31508004DE073322E63002F686F6D652F646576656C68
S31508004DF06F7065722F53696D706C69636974795346
S31508004E00747564696F2F53444B732F73696D706C97
S31508004E1069636974795F73646B5F322F7574696C43
S31508004E202F74686972645F70617274792F6672652F
S31508004E306572746F732F6B65726E656C2F7175650D
S31508004E4075652E63002F686F6D652F646576656CD2
S31508004E506F7065722F53696D706C696369747953E5
S31508004E60747564696F2F53444B732F73696D706C37
S31508004E7069636974795F73646B5F322F7574696CE3
S31508004E802F74686972645F70617274792F667265CF
S31508004E906572746F732F6B65726E656C2F746173B0
S31508004EA06B732E630049444C4500546D725100548F
S31508004EB06D7220537663002F686F6D652F64657673
S31508004EC0656C6F7065722F53696D706C6963697470
S31508004ED07953747564696F2F53444B732F73696DD7
S31508004EE0706C69636974795F73646B5F322F75746C
S31508004EF0696C2F74686972645F70617274792F6661
S31508004F0072656572746F732F6B65726E656C2F743C
S31508004F10696D6572732E63002F686F6D652F646502
S31508004F2076656C6F7065722F53696D706C6963690D
S31508004F30747953747564696F2F53444B732F73696F
S31508004F406D706C69636974795F73646B5F322F7512
S31508004F5074696C2F74686972645F70617274792FF2
S31508004F606672656572746F732F6B65726E656C2FEA
S31508004F70706F727461626C652F4743432F41524DBF
S31508004F805F434D33335F4E545A2F6E6F6E5F7365B2
S31108004F90637572652F706F72742E6300D3
S30D08004F9C78B3FF7F0100000055
S31108004FA4B04F00088826002020000000FE
S31508004FB0C0EA2101C0EA210100800000C01753029F
S31508004FC037000000AAAAAAAAA4260020000000000A
S31508004FD0A42400200C2500207425002000000000D1
S31508004FE000000000000000000000000000000000B3
S31508004FF000000000000000000000000000000000A3
S315080050000000000000000000000000000000000092
S315080050100000000000000000FFFFFFFF0100000085
S315080050200400030200280100F1020008C902000872
S7050800062DBF
